{
  "contractName": "Functional",
  "abi": [
    {
      "constant": true,
      "inputs": [
        {
          "name": "a",
          "type": "uint256"
        }
      ],
      "name": "cubic",
      "outputs": [
        {
          "name": "b",
          "type": "uint256"
        }
      ],
      "payable": false,
      "stateMutability": "pure",
      "type": "function"
    },
    {
      "constant": true,
      "inputs": [
        {
          "name": "a",
          "type": "uint256"
        }
      ],
      "name": "linear",
      "outputs": [
        {
          "name": "b",
          "type": "uint256"
        }
      ],
      "payable": false,
      "stateMutability": "pure",
      "type": "function"
    },
    {
      "constant": true,
      "inputs": [
        {
          "name": "a",
          "type": "uint256"
        }
      ],
      "name": "quadratic",
      "outputs": [
        {
          "name": "b",
          "type": "uint256"
        }
      ],
      "payable": false,
      "stateMutability": "pure",
      "type": "function"
    }
  ],
  "bytecode": "0x6060604052341561000f57600080fd5b6102068061001e6000396000f300606060405260043610610057576000357c0100000000000000000000000000000000000000000000000000000000900463ffffffff16806331735cfb1461005c5780635a5f5d3914610093578063ef8ae94a146100ca575b600080fd5b341561006757600080fd5b61007d6004808035906020019091905050610101565b6040518082815260200191505060405180910390f35b341561009e57600080fd5b6100b46004808035906020019091905050610166565b6040518082815260200191505060405180910390f35b34156100d557600080fd5b6100eb6004808035906020019091905050610192565b6040518082815260200191505060405180910390f35b600080600080600092505b8483101561015e57600091505b8482101561015157600090505b84811015610144576001935084840193508080600101915050610126565b8180600101925050610119565b828060010193505061010c565b505050919050565b600080600090505b8281101561018c57600191508282019150808060010191505061016e565b50919050565b60008060008091505b838210156101d357600090505b838110156101c65760019250838301925080806001019150506101a8565b818060010192505061019b565b50509190505600a165627a7a723058206900c6e58898f3614977b9da4ed2f1ac39e28584aabccfe80d28fbd4c0f390050029",
  "source": "pragma solidity ^0.4.17;\n\ncontract Functional {\n  function linear(uint a) public pure returns (uint b){\n    for (uint i = 0; i < a; i++) {\n      b = 1;\n      b = b + a;\n    }\n  }\n\n  function quadratic(uint a) public pure returns (uint b){\n    for (uint i = 0; i < a; i++) {\n      for (uint j = 0; j < a; j++) {\n        b = 1;\n        b = b + a;\n      }\n    }\n  }\n\n  function cubic(uint a) public pure returns (uint b){\n    for (uint i = 0; i < a; i++) {\n      for (uint j = 0; j < a; j++) {\n        for (uint k = 0; k < a; k++) {\n          b = 1;\n          b = b + a;\n        }\n      }\n    }\n  }\n}\n",
  "sourcePath": "/home/nud3l/GitHub/functional-solidity/contracts/Functional.sol",
  "compiler": {
    "name": "solc",
    "version": "0.4.18+commit.9cf6e910.Emscripten.clang"
  },
  "schemaVersion": "1.0.1",
  "updatedAt": "2017-11-08T18:15:44.451Z"
}